{
  "_format": "hh-sol-artifact-1",
  "contractName": "BorrowYourCar",
  "sourceName": "contracts/BorrowYourCar.sol",
  "abi": [
    {
      "inputs": [
        {
          "internalType": "string",
          "name": "_name",
          "type": "string"
        },
        {
          "internalType": "string",
          "name": "_symbol",
          "type": "string"
        }
      ],
      "stateMutability": "nonpayable",
      "type": "constructor"
    },
    {
      "inputs": [
        {
          "internalType": "address",
          "name": "sender",
          "type": "address"
        },
        {
          "internalType": "uint256",
          "name": "tokenId",
          "type": "uint256"
        },
        {
          "internalType": "address",
          "name": "owner",
          "type": "address"
        }
      ],
      "name": "ERC721IncorrectOwner",
      "type": "error"
    },
    {
      "inputs": [
        {
          "internalType": "address",
          "name": "operator",
          "type": "address"
        },
        {
          "internalType": "uint256",
          "name": "tokenId",
          "type": "uint256"
        }
      ],
      "name": "ERC721InsufficientApproval",
      "type": "error"
    },
    {
      "inputs": [
        {
          "internalType": "address",
          "name": "approver",
          "type": "address"
        }
      ],
      "name": "ERC721InvalidApprover",
      "type": "error"
    },
    {
      "inputs": [
        {
          "internalType": "address",
          "name": "operator",
          "type": "address"
        }
      ],
      "name": "ERC721InvalidOperator",
      "type": "error"
    },
    {
      "inputs": [
        {
          "internalType": "address",
          "name": "owner",
          "type": "address"
        }
      ],
      "name": "ERC721InvalidOwner",
      "type": "error"
    },
    {
      "inputs": [
        {
          "internalType": "address",
          "name": "receiver",
          "type": "address"
        }
      ],
      "name": "ERC721InvalidReceiver",
      "type": "error"
    },
    {
      "inputs": [
        {
          "internalType": "address",
          "name": "sender",
          "type": "address"
        }
      ],
      "name": "ERC721InvalidSender",
      "type": "error"
    },
    {
      "inputs": [
        {
          "internalType": "uint256",
          "name": "tokenId",
          "type": "uint256"
        }
      ],
      "name": "ERC721NonexistentToken",
      "type": "error"
    },
    {
      "anonymous": false,
      "inputs": [
        {
          "indexed": true,
          "internalType": "address",
          "name": "owner",
          "type": "address"
        },
        {
          "indexed": true,
          "internalType": "address",
          "name": "approved",
          "type": "address"
        },
        {
          "indexed": true,
          "internalType": "uint256",
          "name": "tokenId",
          "type": "uint256"
        }
      ],
      "name": "Approval",
      "type": "event"
    },
    {
      "anonymous": false,
      "inputs": [
        {
          "indexed": true,
          "internalType": "address",
          "name": "owner",
          "type": "address"
        },
        {
          "indexed": true,
          "internalType": "address",
          "name": "operator",
          "type": "address"
        },
        {
          "indexed": false,
          "internalType": "bool",
          "name": "approved",
          "type": "bool"
        }
      ],
      "name": "ApprovalForAll",
      "type": "event"
    },
    {
      "anonymous": false,
      "inputs": [
        {
          "indexed": false,
          "internalType": "uint32",
          "name": "carTokenId",
          "type": "uint32"
        },
        {
          "indexed": false,
          "internalType": "address",
          "name": "borrower",
          "type": "address"
        },
        {
          "indexed": false,
          "internalType": "uint256",
          "name": "startTime",
          "type": "uint256"
        },
        {
          "indexed": false,
          "internalType": "uint256",
          "name": "duration",
          "type": "uint256"
        }
      ],
      "name": "CarBorrowed",
      "type": "event"
    },
    {
      "anonymous": false,
      "inputs": [
        {
          "indexed": true,
          "internalType": "address",
          "name": "from",
          "type": "address"
        },
        {
          "indexed": true,
          "internalType": "address",
          "name": "to",
          "type": "address"
        },
        {
          "indexed": true,
          "internalType": "uint256",
          "name": "tokenId",
          "type": "uint256"
        }
      ],
      "name": "Transfer",
      "type": "event"
    },
    {
      "inputs": [
        {
          "internalType": "address",
          "name": "to",
          "type": "address"
        },
        {
          "internalType": "uint256",
          "name": "tokenId",
          "type": "uint256"
        }
      ],
      "name": "approve",
      "outputs": [],
      "stateMutability": "nonpayable",
      "type": "function"
    },
    {
      "inputs": [
        {
          "internalType": "address",
          "name": "owner",
          "type": "address"
        }
      ],
      "name": "balanceOf",
      "outputs": [
        {
          "internalType": "uint256",
          "name": "",
          "type": "uint256"
        }
      ],
      "stateMutability": "view",
      "type": "function"
    },
    {
      "inputs": [
        {
          "internalType": "uint256",
          "name": "_tokenId",
          "type": "uint256"
        },
        {
          "internalType": "uint256",
          "name": "borrowDuration",
          "type": "uint256"
        }
      ],
      "name": "borrowCar",
      "outputs": [],
      "stateMutability": "nonpayable",
      "type": "function"
    },
    {
      "inputs": [
        {
          "internalType": "uint256",
          "name": "_tokenId",
          "type": "uint256"
        }
      ],
      "name": "canBorrow",
      "outputs": [
        {
          "internalType": "bool",
          "name": "",
          "type": "bool"
        }
      ],
      "stateMutability": "view",
      "type": "function"
    },
    {
      "inputs": [
        {
          "internalType": "uint256",
          "name": "",
          "type": "uint256"
        }
      ],
      "name": "cars",
      "outputs": [
        {
          "internalType": "address",
          "name": "owner",
          "type": "address"
        },
        {
          "internalType": "address",
          "name": "borrower",
          "type": "address"
        },
        {
          "internalType": "uint256",
          "name": "borrowUntil",
          "type": "uint256"
        }
      ],
      "stateMutability": "view",
      "type": "function"
    },
    {
      "inputs": [
        {
          "internalType": "uint256",
          "name": "tokenId",
          "type": "uint256"
        }
      ],
      "name": "getApproved",
      "outputs": [
        {
          "internalType": "address",
          "name": "",
          "type": "address"
        }
      ],
      "stateMutability": "view",
      "type": "function"
    },
    {
      "inputs": [],
      "name": "getAvailableCars",
      "outputs": [
        {
          "internalType": "uint256[]",
          "name": "",
          "type": "uint256[]"
        }
      ],
      "stateMutability": "view",
      "type": "function"
    },
    {
      "inputs": [
        {
          "internalType": "uint256",
          "name": "carId",
          "type": "uint256"
        }
      ],
      "name": "getBorrower",
      "outputs": [
        {
          "internalType": "address",
          "name": "",
          "type": "address"
        }
      ],
      "stateMutability": "view",
      "type": "function"
    },
    {
      "inputs": [],
      "name": "getOwnedCars",
      "outputs": [
        {
          "internalType": "uint256[]",
          "name": "",
          "type": "uint256[]"
        }
      ],
      "stateMutability": "view",
      "type": "function"
    },
    {
      "inputs": [
        {
          "internalType": "uint256",
          "name": "carId",
          "type": "uint256"
        }
      ],
      "name": "getOwner",
      "outputs": [
        {
          "internalType": "address",
          "name": "",
          "type": "address"
        }
      ],
      "stateMutability": "view",
      "type": "function"
    },
    {
      "inputs": [
        {
          "internalType": "address",
          "name": "owner",
          "type": "address"
        },
        {
          "internalType": "address",
          "name": "operator",
          "type": "address"
        }
      ],
      "name": "isApprovedForAll",
      "outputs": [
        {
          "internalType": "bool",
          "name": "",
          "type": "bool"
        }
      ],
      "stateMutability": "view",
      "type": "function"
    },
    {
      "inputs": [],
      "name": "issueCar",
      "outputs": [],
      "stateMutability": "nonpayable",
      "type": "function"
    },
    {
      "inputs": [],
      "name": "manager",
      "outputs": [
        {
          "internalType": "address",
          "name": "",
          "type": "address"
        }
      ],
      "stateMutability": "view",
      "type": "function"
    },
    {
      "inputs": [],
      "name": "name",
      "outputs": [
        {
          "internalType": "string",
          "name": "",
          "type": "string"
        }
      ],
      "stateMutability": "view",
      "type": "function"
    },
    {
      "inputs": [
        {
          "internalType": "address",
          "name": "",
          "type": "address"
        },
        {
          "internalType": "uint256",
          "name": "",
          "type": "uint256"
        }
      ],
      "name": "ownedCars",
      "outputs": [
        {
          "internalType": "uint256",
          "name": "",
          "type": "uint256"
        }
      ],
      "stateMutability": "view",
      "type": "function"
    },
    {
      "inputs": [
        {
          "internalType": "uint256",
          "name": "tokenId",
          "type": "uint256"
        }
      ],
      "name": "ownerOf",
      "outputs": [
        {
          "internalType": "address",
          "name": "",
          "type": "address"
        }
      ],
      "stateMutability": "view",
      "type": "function"
    },
    {
      "inputs": [],
      "name": "payFee",
      "outputs": [
        {
          "internalType": "contract MyERC20",
          "name": "",
          "type": "address"
        }
      ],
      "stateMutability": "view",
      "type": "function"
    },
    {
      "inputs": [
        {
          "internalType": "uint256",
          "name": "_tokenId",
          "type": "uint256"
        }
      ],
      "name": "returnCar",
      "outputs": [],
      "stateMutability": "nonpayable",
      "type": "function"
    },
    {
      "inputs": [
        {
          "internalType": "address",
          "name": "from",
          "type": "address"
        },
        {
          "internalType": "address",
          "name": "to",
          "type": "address"
        },
        {
          "internalType": "uint256",
          "name": "tokenId",
          "type": "uint256"
        }
      ],
      "name": "safeTransferFrom",
      "outputs": [],
      "stateMutability": "nonpayable",
      "type": "function"
    },
    {
      "inputs": [
        {
          "internalType": "address",
          "name": "from",
          "type": "address"
        },
        {
          "internalType": "address",
          "name": "to",
          "type": "address"
        },
        {
          "internalType": "uint256",
          "name": "tokenId",
          "type": "uint256"
        },
        {
          "internalType": "bytes",
          "name": "data",
          "type": "bytes"
        }
      ],
      "name": "safeTransferFrom",
      "outputs": [],
      "stateMutability": "nonpayable",
      "type": "function"
    },
    {
      "inputs": [
        {
          "internalType": "address",
          "name": "operator",
          "type": "address"
        },
        {
          "internalType": "bool",
          "name": "approved",
          "type": "bool"
        }
      ],
      "name": "setApprovalForAll",
      "outputs": [],
      "stateMutability": "nonpayable",
      "type": "function"
    },
    {
      "inputs": [
        {
          "internalType": "bytes4",
          "name": "interfaceId",
          "type": "bytes4"
        }
      ],
      "name": "supportsInterface",
      "outputs": [
        {
          "internalType": "bool",
          "name": "",
          "type": "bool"
        }
      ],
      "stateMutability": "view",
      "type": "function"
    },
    {
      "inputs": [],
      "name": "symbol",
      "outputs": [
        {
          "internalType": "string",
          "name": "",
          "type": "string"
        }
      ],
      "stateMutability": "view",
      "type": "function"
    },
    {
      "inputs": [
        {
          "internalType": "uint256",
          "name": "tokenId",
          "type": "uint256"
        }
      ],
      "name": "tokenURI",
      "outputs": [
        {
          "internalType": "string",
          "name": "",
          "type": "string"
        }
      ],
      "stateMutability": "view",
      "type": "function"
    },
    {
      "inputs": [
        {
          "internalType": "address",
          "name": "from",
          "type": "address"
        },
        {
          "internalType": "address",
          "name": "to",
          "type": "address"
        },
        {
          "internalType": "uint256",
          "name": "tokenId",
          "type": "uint256"
        }
      ],
      "name": "transferFrom",
      "outputs": [],
      "stateMutability": "nonpayable",
      "type": "function"
    }
  ],
  "bytecode": "0x608060405260006007553480156200001657600080fd5b5060405162004b5438038062004b5483398181016040528101906200003c9190620002c9565b818181600090816200004f919062000599565b50806001908162000061919062000599565b50505033600660006101000a81548173ffffffffffffffffffffffffffffffffffffffff021916908373ffffffffffffffffffffffffffffffffffffffff1602179055508181604051620000b59062000128565b620000c2929190620006d2565b604051809103906000f080158015620000df573d6000803e3d6000fd5b50600860006101000a81548173ffffffffffffffffffffffffffffffffffffffff021916908373ffffffffffffffffffffffffffffffffffffffff16021790555050506200070d565b611638806200351c83390190565b6000604051905090565b600080fd5b600080fd5b600080fd5b600080fd5b6000601f19601f8301169050919050565b7f4e487b7100000000000000000000000000000000000000000000000000000000600052604160045260246000fd5b6200019f8262000154565b810181811067ffffffffffffffff82111715620001c157620001c062000165565b5b80604052505050565b6000620001d662000136565b9050620001e4828262000194565b919050565b600067ffffffffffffffff82111562000207576200020662000165565b5b620002128262000154565b9050602081019050919050565b60005b838110156200023f57808201518184015260208101905062000222565b60008484015250505050565b6000620002626200025c84620001e9565b620001ca565b9050828152602081018484840111156200028157620002806200014f565b5b6200028e8482856200021f565b509392505050565b600082601f830112620002ae57620002ad6200014a565b5b8151620002c08482602086016200024b565b91505092915050565b60008060408385031215620002e357620002e262000140565b5b600083015167ffffffffffffffff81111562000304576200030362000145565b5b620003128582860162000296565b925050602083015167ffffffffffffffff81111562000336576200033562000145565b5b620003448582860162000296565b9150509250929050565b600081519050919050565b7f4e487b7100000000000000000000000000000000000000000000000000000000600052602260045260246000fd5b60006002820490506001821680620003a157607f821691505b602082108103620003b757620003b662000359565b5b50919050565b60008190508160005260206000209050919050565b60006020601f8301049050919050565b600082821b905092915050565b600060088302620004217fffffffffffffffffffffffffffffffffffffffffffffffffffffffffffffffff82620003e2565b6200042d8683620003e2565b95508019841693508086168417925050509392505050565b6000819050919050565b6000819050919050565b60006200047a620004746200046e8462000445565b6200044f565b62000445565b9050919050565b6000819050919050565b620004968362000459565b620004ae620004a58262000481565b848454620003ef565b825550505050565b600090565b620004c5620004b6565b620004d28184846200048b565b505050565b5b81811015620004fa57620004ee600082620004bb565b600181019050620004d8565b5050565b601f82111562000549576200051381620003bd565b6200051e84620003d2565b810160208510156200052e578190505b620005466200053d85620003d2565b830182620004d7565b50505b505050565b600082821c905092915050565b60006200056e600019846008026200054e565b1980831691505092915050565b60006200058983836200055b565b9150826002028217905092915050565b620005a4826200034e565b67ffffffffffffffff811115620005c057620005bf62000165565b5b620005cc825462000388565b620005d9828285620004fe565b600060209050601f831160018114620006115760008415620005fc578287015190505b6200060885826200057b565b86555062000678565b601f1984166200062186620003bd565b60005b828110156200064b5784890151825560018201915060208501945060208101905062000624565b868310156200066b578489015162000667601f8916826200055b565b8355505b6001600288020188555050505b505050505050565b600082825260208201905092915050565b60006200069e826200034e565b620006aa818562000680565b9350620006bc8185602086016200021f565b620006c78162000154565b840191505092915050565b60006040820190508181036000830152620006ee818562000691565b9050818103602083015262000704818462000691565b90509392505050565b612dff806200071d6000396000f3fe608060405234801561001057600080fd5b50600436106101735760003560e01c806370a08231116100de578063b66935ed11610097578063c87b56dd11610071578063c87b56dd1461045e578063e865af041461048e578063e985e9c5146104aa578063f7746e36146104da57610173565b8063b66935ed146103e2578063b88d4fde14610412578063c41a360a1461042e57610173565b806370a08231146103205780638500d9191461035057806395d89b4114610380578063a22cb4651461039e578063a2753b31146103ba578063a5adf8ea146103c457610173565b806323b872dd1161013057806323b872dd1461025e578063296102521461027a57806342842e0e14610298578063433b8046146102b4578063481c6a75146102d25780636352211e146102f057610173565b806301ffc9a71461017857806306fdde03146101a8578063081812fc146101c65780630911f04a146101f6578063095ea7b31461022657806317f956e014610242575b600080fd5b610192600480360381019061018d9190612159565b61050c565b60405161019f91906121a1565b60405180910390f35b6101b06105ee565b6040516101bd919061224c565b60405180910390f35b6101e060048036038101906101db91906122a4565b610680565b6040516101ed9190612312565b60405180910390f35b610210600480360381019061020b91906122a4565b61069c565b60405161021d91906121a1565b60405180910390f35b610240600480360381019061023b9190612359565b61072c565b005b61025c600480360381019061025791906122a4565b610742565b005b61027860048036038101906102739190612399565b61085b565b005b61028261095d565b60405161028f919061244b565b60405180910390f35b6102b260048036038101906102ad9190612399565b610983565b005b6102bc6109a3565b6040516102c99190612524565b60405180910390f35b6102da610b02565b6040516102e79190612312565b60405180910390f35b61030a600480360381019061030591906122a4565b610b28565b6040516103179190612312565b60405180910390f35b61033a60048036038101906103359190612546565b610b3a565b6040516103479190612582565b60405180910390f35b61036a600480360381019061036591906122a4565b610bf4565b6040516103779190612312565b60405180910390f35b610388610c5b565b604051610395919061224c565b60405180910390f35b6103b860048036038101906103b391906125c9565b610ced565b005b6103c2610d03565b005b6103cc610e8c565b6040516103d99190612524565b60405180910390f35b6103fc60048036038101906103f79190612359565b610f21565b6040516104099190612582565b60405180910390f35b61042c6004803603810190610427919061273e565b610f52565b005b610448600480360381019061044391906122a4565b610f6f565b6040516104559190612312565b60405180910390f35b610478600480360381019061047391906122a4565b610fb4565b604051610485919061224c565b60405180910390f35b6104a860048036038101906104a391906127c1565b61101d565b005b6104c460048036038101906104bf9190612801565b6112ae565b6040516104d191906121a1565b60405180910390f35b6104f460048036038101906104ef91906122a4565b611342565b60405161050393929190612841565b60405180910390f35b60007f80ac58cd000000000000000000000000000000000000000000000000000000007bffffffffffffffffffffffffffffffffffffffffffffffffffffffff1916827bffffffffffffffffffffffffffffffffffffffffffffffffffffffff191614806105d757507f5b5e139f000000000000000000000000000000000000000000000000000000007bffffffffffffffffffffffffffffffffffffffffffffffffffffffff1916827bffffffffffffffffffffffffffffffffffffffffffffffffffffffff1916145b806105e757506105e6826113ac565b5b9050919050565b6060600080546105fd906128a7565b80601f0160208091040260200160405190810160405280929190818152602001828054610629906128a7565b80156106765780601f1061064b57610100808354040283529160200191610676565b820191906000526020600020905b81548152906001019060200180831161065957829003601f168201915b5050505050905090565b600061068b82611416565b506106958261149e565b9050919050565b60004260096000848152602001908152602001600020600201541080156107255750600073ffffffffffffffffffffffffffffffffffffffff166009600084815260200190815260200160002060010160009054906101000a900473ffffffffffffffffffffffffffffffffffffffff1673ffffffffffffffffffffffffffffffffffffffff16145b9050919050565b61073e82826107396114db565b6114e3565b5050565b3373ffffffffffffffffffffffffffffffffffffffff166009600083815260200190815260200160002060010160009054906101000a900473ffffffffffffffffffffffffffffffffffffffff1673ffffffffffffffffffffffffffffffffffffffff16146107e6576040517f08c379a00000000000000000000000000000000000000000000000000000000081526004016107dd9061294a565b60405180910390fd5b60006009600083815260200190815260200160002060010160006101000a81548173ffffffffffffffffffffffffffffffffffffffff021916908373ffffffffffffffffffffffffffffffffffffffff1602179055506000600960008381526020019081526020016000206002018190555050565b600073ffffffffffffffffffffffffffffffffffffffff168273ffffffffffffffffffffffffffffffffffffffff16036108cd5760006040517f64a0ae920000000000000000000000000000000000000000000000000000000081526004016108c49190612312565b60405180910390fd5b60006108e183836108dc6114db565b6114f5565b90508373ffffffffffffffffffffffffffffffffffffffff168173ffffffffffffffffffffffffffffffffffffffff1614610957578382826040517f64283d7b00000000000000000000000000000000000000000000000000000000815260040161094e9392919061296a565b60405180910390fd5b50505050565b600860009054906101000a900473ffffffffffffffffffffffffffffffffffffffff1681565b61099e83838360405180602001604052806000815250610f52565b505050565b6060600060075467ffffffffffffffff8111156109c3576109c2612613565b5b6040519080825280602002602001820160405280156109f15781602001602082028036833780820191505090505b5090506000805b600754811015610a5257610a0b8161069c565b15610a3f5780838381518110610a2457610a236129a1565b5b6020026020010181815250508180610a3b906129ff565b9250505b8080610a4a906129ff565b9150506109f8565b5060008167ffffffffffffffff811115610a6f57610a6e612613565b5b604051908082528060200260200182016040528015610a9d5781602001602082028036833780820191505090505b50905060005b82811015610af857838181518110610abe57610abd6129a1565b5b6020026020010151828281518110610ad957610ad86129a1565b5b6020026020010181815250508080610af0906129ff565b915050610aa3565b5080935050505090565b600660009054906101000a900473ffffffffffffffffffffffffffffffffffffffff1681565b6000610b3382611416565b9050919050565b60008073ffffffffffffffffffffffffffffffffffffffff168273ffffffffffffffffffffffffffffffffffffffff1603610bad5760006040517f89c62b64000000000000000000000000000000000000000000000000000000008152600401610ba49190612312565b60405180910390fd5b600360008373ffffffffffffffffffffffffffffffffffffffff1673ffffffffffffffffffffffffffffffffffffffff168152602001908152602001600020549050919050565b600042600960008481526020019081526020016000206002015410610c51576009600083815260200190815260200160002060010160009054906101000a900473ffffffffffffffffffffffffffffffffffffffff169050610c56565b600090505b919050565b606060018054610c6a906128a7565b80601f0160208091040260200160405190810160405280929190818152602001828054610c96906128a7565b8015610ce35780601f10610cb857610100808354040283529160200191610ce3565b820191906000526020600020905b815481529060010190602001808311610cc657829003601f168201915b5050505050905090565b610cff610cf86114db565b838361170f565b5050565b60006007549050610d14338261187e565b60405180606001604052803373ffffffffffffffffffffffffffffffffffffffff168152602001600073ffffffffffffffffffffffffffffffffffffffff16815260200160008152506009600083815260200190815260200160002060008201518160000160006101000a81548173ffffffffffffffffffffffffffffffffffffffff021916908373ffffffffffffffffffffffffffffffffffffffff16021790555060208201518160010160006101000a81548173ffffffffffffffffffffffffffffffffffffffff021916908373ffffffffffffffffffffffffffffffffffffffff1602179055506040820151816002015590505060076000815480929190610e1e906129ff565b9190505550600a60003373ffffffffffffffffffffffffffffffffffffffff1673ffffffffffffffffffffffffffffffffffffffff16815260200190815260200160002081908060018154018082558091505060019003906000526020600020016000909190919091505550565b6060600a60003373ffffffffffffffffffffffffffffffffffffffff1673ffffffffffffffffffffffffffffffffffffffff168152602001908152602001600020805480602002602001604051908101604052809291908181526020018280548015610f1757602002820191906000526020600020905b815481526020019060010190808311610f03575b5050505050905090565b600a6020528160005260406000208181548110610f3d57600080fd5b90600052602060002001600091509150505481565b610f5d84848461085b565b610f6984848484611977565b50505050565b6000806009600084815260200190815260200160002090508060000160009054906101000a900473ffffffffffffffffffffffffffffffffffffffff16915050919050565b6060610fbf82611416565b506000610fca611b2e565b90506000815111610fea5760405180602001604052806000815250611015565b80610ff484611b45565b604051602001611005929190612a83565b6040516020818303038152906040525b915050919050565b6110268261069c565b611065576040517f08c379a000000000000000000000000000000000000000000000000000000000815260040161105c90612b19565b60405180910390fd5b336009600084815260200190815260200160002060010160006101000a81548173ffffffffffffffffffffffffffffffffffffffff021916908373ffffffffffffffffffffffffffffffffffffffff16021790555080426110c69190612b39565b60096000848152602001908152602001600020600201819055506000612710826110f09190612b9c565b905080600860009054906101000a900473ffffffffffffffffffffffffffffffffffffffff1673ffffffffffffffffffffffffffffffffffffffff166370a08231336040518263ffffffff1660e01b815260040161114e9190612312565b602060405180830381865afa15801561116b573d6000803e3d6000fd5b505050506040513d601f19601f8201168201806040525081019061118f9190612be2565b10156111d0576040517f08c379a00000000000000000000000000000000000000000000000000000000081526004016111c790612c5b565b60405180910390fd5b600860009054906101000a900473ffffffffffffffffffffffffffffffffffffffff1673ffffffffffffffffffffffffffffffffffffffff166323b872dd336009600087815260200190815260200160002060000160009054906101000a900473ffffffffffffffffffffffffffffffffffffffff16846040518463ffffffff1660e01b815260040161126593929190612841565b6020604051808303816000875af1158015611284573d6000803e3d6000fd5b505050506040513d601f19601f820116820180604052508101906112a89190612c90565b50505050565b6000600560008473ffffffffffffffffffffffffffffffffffffffff1673ffffffffffffffffffffffffffffffffffffffff16815260200190815260200160002060008373ffffffffffffffffffffffffffffffffffffffff1673ffffffffffffffffffffffffffffffffffffffff16815260200190815260200160002060009054906101000a900460ff16905092915050565b60096020528060005260406000206000915090508060000160009054906101000a900473ffffffffffffffffffffffffffffffffffffffff16908060010160009054906101000a900473ffffffffffffffffffffffffffffffffffffffff16908060020154905083565b60007f01ffc9a7000000000000000000000000000000000000000000000000000000007bffffffffffffffffffffffffffffffffffffffffffffffffffffffff1916827bffffffffffffffffffffffffffffffffffffffffffffffffffffffff1916149050919050565b60008061142283611c13565b9050600073ffffffffffffffffffffffffffffffffffffffff168173ffffffffffffffffffffffffffffffffffffffff160361149557826040517f7e27328900000000000000000000000000000000000000000000000000000000815260040161148c9190612582565b60405180910390fd5b80915050919050565b60006004600083815260200190815260200160002060009054906101000a900473ffffffffffffffffffffffffffffffffffffffff169050919050565b600033905090565b6114f08383836001611c50565b505050565b60008061150184611c13565b9050600073ffffffffffffffffffffffffffffffffffffffff168373ffffffffffffffffffffffffffffffffffffffff161461154357611542818486611e15565b5b600073ffffffffffffffffffffffffffffffffffffffff168173ffffffffffffffffffffffffffffffffffffffff16146115d457611585600085600080611c50565b6001600360008373ffffffffffffffffffffffffffffffffffffffff1673ffffffffffffffffffffffffffffffffffffffff168152602001908152602001600020600082825403925050819055505b600073ffffffffffffffffffffffffffffffffffffffff168573ffffffffffffffffffffffffffffffffffffffff1614611657576001600360008773ffffffffffffffffffffffffffffffffffffffff1673ffffffffffffffffffffffffffffffffffffffff168152602001908152602001600020600082825401925050819055505b846002600086815260200190815260200160002060006101000a81548173ffffffffffffffffffffffffffffffffffffffff021916908373ffffffffffffffffffffffffffffffffffffffff160217905550838573ffffffffffffffffffffffffffffffffffffffff168273ffffffffffffffffffffffffffffffffffffffff167fddf252ad1be2c89b69c2b068fc378daa952ba7f163c4a11628f55a4df523b3ef60405160405180910390a4809150509392505050565b600073ffffffffffffffffffffffffffffffffffffffff168273ffffffffffffffffffffffffffffffffffffffff160361178057816040517f5b08ba180000000000000000000000000000000000000000000000000000000081526004016117779190612312565b60405180910390fd5b80600560008573ffffffffffffffffffffffffffffffffffffffff1673ffffffffffffffffffffffffffffffffffffffff16815260200190815260200160002060008473ffffffffffffffffffffffffffffffffffffffff1673ffffffffffffffffffffffffffffffffffffffff16815260200190815260200160002060006101000a81548160ff0219169083151502179055508173ffffffffffffffffffffffffffffffffffffffff168373ffffffffffffffffffffffffffffffffffffffff167f17307eab39ab6107e8899845ad3d59bd9653f200f220920489ca2b5937696c318360405161187191906121a1565b60405180910390a3505050565b600073ffffffffffffffffffffffffffffffffffffffff168273ffffffffffffffffffffffffffffffffffffffff16036118f05760006040517f64a0ae920000000000000000000000000000000000000000000000000000000081526004016118e79190612312565b60405180910390fd5b60006118fe838360006114f5565b9050600073ffffffffffffffffffffffffffffffffffffffff168173ffffffffffffffffffffffffffffffffffffffff16146119725760006040517f73c6ac6e0000000000000000000000000000000000000000000000000000000081526004016119699190612312565b60405180910390fd5b505050565b60008373ffffffffffffffffffffffffffffffffffffffff163b1115611b28578273ffffffffffffffffffffffffffffffffffffffff1663150b7a026119bb6114db565b8685856040518563ffffffff1660e01b81526004016119dd9493929190612d12565b6020604051808303816000875af1925050508015611a1957506040513d601f19601f82011682018060405250810190611a169190612d73565b60015b611a9d573d8060008114611a49576040519150601f19603f3d011682016040523d82523d6000602084013e611a4e565b606091505b506000815103611a9557836040517f64a0ae92000000000000000000000000000000000000000000000000000000008152600401611a8c9190612312565b60405180910390fd5b805181602001fd5b63150b7a0260e01b7bffffffffffffffffffffffffffffffffffffffffffffffffffffffff1916817bffffffffffffffffffffffffffffffffffffffffffffffffffffffff191614611b2657836040517f64a0ae92000000000000000000000000000000000000000000000000000000008152600401611b1d9190612312565b60405180910390fd5b505b50505050565b606060405180602001604052806000815250905090565b606060006001611b5484611ed9565b01905060008167ffffffffffffffff811115611b7357611b72612613565b5b6040519080825280601f01601f191660200182016040528015611ba55781602001600182028036833780820191505090505b509050600082602001820190505b600115611c08578080600190039150507f3031323334353637383961626364656600000000000000000000000000000000600a86061a8153600a8581611bfc57611bfb612b6d565b5b04945060008503611bb3575b819350505050919050565b60006002600083815260200190815260200160002060009054906101000a900473ffffffffffffffffffffffffffffffffffffffff169050919050565b8080611c895750600073ffffffffffffffffffffffffffffffffffffffff168273ffffffffffffffffffffffffffffffffffffffff1614155b15611dbd576000611c9984611416565b9050600073ffffffffffffffffffffffffffffffffffffffff168373ffffffffffffffffffffffffffffffffffffffff1614158015611d0457508273ffffffffffffffffffffffffffffffffffffffff168173ffffffffffffffffffffffffffffffffffffffff1614155b8015611d175750611d1581846112ae565b155b15611d5957826040517fa9fbf51f000000000000000000000000000000000000000000000000000000008152600401611d509190612312565b60405180910390fd5b8115611dbb57838573ffffffffffffffffffffffffffffffffffffffff168273ffffffffffffffffffffffffffffffffffffffff167f8c5be1e5ebec7d5bd14f71427d1e84f3dd0314c0f7b2291e5b200ac8c7c3b92560405160405180910390a45b505b836004600085815260200190815260200160002060006101000a81548173ffffffffffffffffffffffffffffffffffffffff021916908373ffffffffffffffffffffffffffffffffffffffff16021790555050505050565b611e2083838361202c565b611ed457600073ffffffffffffffffffffffffffffffffffffffff168373ffffffffffffffffffffffffffffffffffffffff1603611e9557806040517f7e273289000000000000000000000000000000000000000000000000000000008152600401611e8c9190612582565b60405180910390fd5b81816040517f177e802f000000000000000000000000000000000000000000000000000000008152600401611ecb929190612da0565b60405180910390fd5b505050565b600080600090507a184f03e93ff9f4daa797ed6e38ed64bf6a1f0100000000000000008310611f37577a184f03e93ff9f4daa797ed6e38ed64bf6a1f0100000000000000008381611f2d57611f2c612b6d565b5b0492506040810190505b6d04ee2d6d415b85acef81000000008310611f74576d04ee2d6d415b85acef81000000008381611f6a57611f69612b6d565b5b0492506020810190505b662386f26fc100008310611fa357662386f26fc100008381611f9957611f98612b6d565b5b0492506010810190505b6305f5e1008310611fcc576305f5e1008381611fc257611fc1612b6d565b5b0492506008810190505b6127108310611ff1576127108381611fe757611fe6612b6d565b5b0492506004810190505b60648310612014576064838161200a57612009612b6d565b5b0492506002810190505b600a8310612023576001810190505b80915050919050565b60008073ffffffffffffffffffffffffffffffffffffffff168373ffffffffffffffffffffffffffffffffffffffff16141580156120e457508273ffffffffffffffffffffffffffffffffffffffff168473ffffffffffffffffffffffffffffffffffffffff1614806120a557506120a484846112ae565b5b806120e357508273ffffffffffffffffffffffffffffffffffffffff166120cb8361149e565b73ffffffffffffffffffffffffffffffffffffffff16145b5b90509392505050565b6000604051905090565b600080fd5b600080fd5b60007fffffffff0000000000000000000000000000000000000000000000000000000082169050919050565b61213681612101565b811461214157600080fd5b50565b6000813590506121538161212d565b92915050565b60006020828403121561216f5761216e6120f7565b5b600061217d84828501612144565b91505092915050565b60008115159050919050565b61219b81612186565b82525050565b60006020820190506121b66000830184612192565b92915050565b600081519050919050565b600082825260208201905092915050565b60005b838110156121f65780820151818401526020810190506121db565b60008484015250505050565b6000601f19601f8301169050919050565b600061221e826121bc565b61222881856121c7565b93506122388185602086016121d8565b61224181612202565b840191505092915050565b600060208201905081810360008301526122668184612213565b905092915050565b6000819050919050565b6122818161226e565b811461228c57600080fd5b50565b60008135905061229e81612278565b92915050565b6000602082840312156122ba576122b96120f7565b5b60006122c88482850161228f565b91505092915050565b600073ffffffffffffffffffffffffffffffffffffffff82169050919050565b60006122fc826122d1565b9050919050565b61230c816122f1565b82525050565b60006020820190506123276000830184612303565b92915050565b612336816122f1565b811461234157600080fd5b50565b6000813590506123538161232d565b92915050565b600080604083850312156123705761236f6120f7565b5b600061237e85828601612344565b925050602061238f8582860161228f565b9150509250929050565b6000806000606084860312156123b2576123b16120f7565b5b60006123c086828701612344565b93505060206123d186828701612344565b92505060406123e28682870161228f565b9150509250925092565b6000819050919050565b600061241161240c612407846122d1565b6123ec565b6122d1565b9050919050565b6000612423826123f6565b9050919050565b600061243582612418565b9050919050565b6124458161242a565b82525050565b6000602082019050612460600083018461243c565b92915050565b600081519050919050565b600082825260208201905092915050565b6000819050602082019050919050565b61249b8161226e565b82525050565b60006124ad8383612492565b60208301905092915050565b6000602082019050919050565b60006124d182612466565b6124db8185612471565b93506124e683612482565b8060005b838110156125175781516124fe88826124a1565b9750612509836124b9565b9250506001810190506124ea565b5085935050505092915050565b6000602082019050818103600083015261253e81846124c6565b905092915050565b60006020828403121561255c5761255b6120f7565b5b600061256a84828501612344565b91505092915050565b61257c8161226e565b82525050565b60006020820190506125976000830184612573565b92915050565b6125a681612186565b81146125b157600080fd5b50565b6000813590506125c38161259d565b92915050565b600080604083850312156125e0576125df6120f7565b5b60006125ee85828601612344565b92505060206125ff858286016125b4565b9150509250929050565b600080fd5b600080fd5b7f4e487b7100000000000000000000000000000000000000000000000000000000600052604160045260246000fd5b61264b82612202565b810181811067ffffffffffffffff8211171561266a57612669612613565b5b80604052505050565b600061267d6120ed565b90506126898282612642565b919050565b600067ffffffffffffffff8211156126a9576126a8612613565b5b6126b282612202565b9050602081019050919050565b82818337600083830152505050565b60006126e16126dc8461268e565b612673565b9050828152602081018484840111156126fd576126fc61260e565b5b6127088482856126bf565b509392505050565b600082601f83011261272557612724612609565b5b81356127358482602086016126ce565b91505092915050565b60008060008060808587031215612758576127576120f7565b5b600061276687828801612344565b945050602061277787828801612344565b93505060406127888782880161228f565b925050606085013567ffffffffffffffff8111156127a9576127a86120fc565b5b6127b587828801612710565b91505092959194509250565b600080604083850312156127d8576127d76120f7565b5b60006127e68582860161228f565b92505060206127f78582860161228f565b9150509250929050565b60008060408385031215612818576128176120f7565b5b600061282685828601612344565b925050602061283785828601612344565b9150509250929050565b60006060820190506128566000830186612303565b6128636020830185612303565b6128706040830184612573565b949350505050565b7f4e487b7100000000000000000000000000000000000000000000000000000000600052602260045260246000fd5b600060028204905060018216806128bf57607f821691505b6020821081036128d2576128d1612878565b5b50919050565b7f4f6e6c792074686520626f72726f7765722063616e2072657475726e2074686560008201527f2063617200000000000000000000000000000000000000000000000000000000602082015250565b60006129346024836121c7565b915061293f826128d8565b604082019050919050565b6000602082019050818103600083015261296381612927565b9050919050565b600060608201905061297f6000830186612303565b61298c6020830185612573565b6129996040830184612303565b949350505050565b7f4e487b7100000000000000000000000000000000000000000000000000000000600052603260045260246000fd5b7f4e487b7100000000000000000000000000000000000000000000000000000000600052601160045260246000fd5b6000612a0a8261226e565b91507fffffffffffffffffffffffffffffffffffffffffffffffffffffffffffffffff8203612a3c57612a3b6129d0565b5b600182019050919050565b600081905092915050565b6000612a5d826121bc565b612a678185612a47565b9350612a778185602086016121d8565b80840191505092915050565b6000612a8f8285612a52565b9150612a9b8284612a52565b91508190509392505050565b7f4361722063616e6e6f7420626520626f72726f7765642061742074686973207460008201527f696d650000000000000000000000000000000000000000000000000000000000602082015250565b6000612b036023836121c7565b9150612b0e82612aa7565b604082019050919050565b60006020820190508181036000830152612b3281612af6565b9050919050565b6000612b448261226e565b9150612b4f8361226e565b9250828201905080821115612b6757612b666129d0565b5b92915050565b7f4e487b7100000000000000000000000000000000000000000000000000000000600052601260045260246000fd5b6000612ba78261226e565b9150612bb28361226e565b925082612bc257612bc1612b6d565b5b828204905092915050565b600081519050612bdc81612278565b92915050565b600060208284031215612bf857612bf76120f7565b5b6000612c0684828501612bcd565b91505092915050565b7f496e73756666696369656e742062616c616e6365000000000000000000000000600082015250565b6000612c456014836121c7565b9150612c5082612c0f565b602082019050919050565b60006020820190508181036000830152612c7481612c38565b9050919050565b600081519050612c8a8161259d565b92915050565b600060208284031215612ca657612ca56120f7565b5b6000612cb484828501612c7b565b91505092915050565b600081519050919050565b600082825260208201905092915050565b6000612ce482612cbd565b612cee8185612cc8565b9350612cfe8185602086016121d8565b612d0781612202565b840191505092915050565b6000608082019050612d276000830187612303565b612d346020830186612303565b612d416040830185612573565b8181036060830152612d538184612cd9565b905095945050505050565b600081519050612d6d8161212d565b92915050565b600060208284031215612d8957612d886120f7565b5b6000612d9784828501612d5e565b91505092915050565b6000604082019050612db56000830185612303565b612dc26020830184612573565b939250505056fea2646970667358221220b7d041c14c7f58b6498a971f454e91318ed71d6460a6440e0cef6473a9b749ce64736f6c6343000814003360806040523480156200001157600080fd5b5060405162001638380380620016388339818101604052810190620000379190620001fa565b818181600390816200004a9190620004ca565b5080600490816200005c9190620004ca565b5050505050620005b1565b6000604051905090565b600080fd5b600080fd5b600080fd5b600080fd5b6000601f19601f8301169050919050565b7f4e487b7100000000000000000000000000000000000000000000000000000000600052604160045260246000fd5b620000d08262000085565b810181811067ffffffffffffffff82111715620000f257620000f162000096565b5b80604052505050565b60006200010762000067565b9050620001158282620000c5565b919050565b600067ffffffffffffffff82111562000138576200013762000096565b5b620001438262000085565b9050602081019050919050565b60005b838110156200017057808201518184015260208101905062000153565b60008484015250505050565b6000620001936200018d846200011a565b620000fb565b905082815260208101848484011115620001b257620001b162000080565b5b620001bf84828562000150565b509392505050565b600082601f830112620001df57620001de6200007b565b5b8151620001f18482602086016200017c565b91505092915050565b6000806040838503121562000214576200021362000071565b5b600083015167ffffffffffffffff81111562000235576200023462000076565b5b6200024385828601620001c7565b925050602083015167ffffffffffffffff81111562000267576200026662000076565b5b6200027585828601620001c7565b9150509250929050565b600081519050919050565b7f4e487b7100000000000000000000000000000000000000000000000000000000600052602260045260246000fd5b60006002820490506001821680620002d257607f821691505b602082108103620002e857620002e76200028a565b5b50919050565b60008190508160005260206000209050919050565b60006020601f8301049050919050565b600082821b905092915050565b600060088302620003527fffffffffffffffffffffffffffffffffffffffffffffffffffffffffffffffff8262000313565b6200035e868362000313565b95508019841693508086168417925050509392505050565b6000819050919050565b6000819050919050565b6000620003ab620003a56200039f8462000376565b62000380565b62000376565b9050919050565b6000819050919050565b620003c7836200038a565b620003df620003d682620003b2565b84845462000320565b825550505050565b600090565b620003f6620003e7565b62000403818484620003bc565b505050565b5b818110156200042b576200041f600082620003ec565b60018101905062000409565b5050565b601f8211156200047a576200044481620002ee565b6200044f8462000303565b810160208510156200045f578190505b620004776200046e8562000303565b83018262000408565b50505b505050565b600082821c905092915050565b60006200049f600019846008026200047f565b1980831691505092915050565b6000620004ba83836200048c565b9150826002028217905092915050565b620004d5826200027f565b67ffffffffffffffff811115620004f157620004f062000096565b5b620004fd8254620002b9565b6200050a8282856200042f565b600060209050601f8311600181146200054257600084156200052d578287015190505b620005398582620004ac565b865550620005a9565b601f1984166200055286620002ee565b60005b828110156200057c5784890151825560018201915060208501945060208101905062000555565b868310156200059c578489015162000598601f8916826200048c565b8355505b6001600288020188555050505b505050505050565b61107780620005c16000396000f3fe608060405234801561001057600080fd5b506004361061009e5760003560e01c80633884d635116100665780633884d6351461015d57806370a082311461016757806395d89b4114610197578063a9059cbb146101b5578063dd62ed3e146101e55761009e565b806306fdde03146100a3578063095ea7b3146100c157806318160ddd146100f157806323b872dd1461010f578063313ce5671461013f575b600080fd5b6100ab610215565b6040516100b89190610c39565b60405180910390f35b6100db60048036038101906100d69190610cf4565b6102a7565b6040516100e89190610d4f565b60405180910390f35b6100f96102ca565b6040516101069190610d79565b60405180910390f35b61012960048036038101906101249190610d94565b6102d4565b6040516101369190610d4f565b60405180910390f35b610147610303565b6040516101549190610e03565b60405180910390f35b61016561030c565b005b610181600480360381019061017c9190610e1e565b610405565b60405161018e9190610d79565b60405180910390f35b61019f61044d565b6040516101ac9190610c39565b60405180910390f35b6101cf60048036038101906101ca9190610cf4565b6104df565b6040516101dc9190610d4f565b60405180910390f35b6101ff60048036038101906101fa9190610e4b565b610502565b60405161020c9190610d79565b60405180910390f35b60606003805461022490610eba565b80601f016020809104026020016040519081016040528092919081815260200182805461025090610eba565b801561029d5780601f106102725761010080835404028352916020019161029d565b820191906000526020600020905b81548152906001019060200180831161028057829003601f168201915b5050505050905090565b6000806102b2610589565b90506102bf818585610591565b600191505092915050565b6000600254905090565b6000806102df610589565b90506102ec8582856105a3565b6102f7858585610637565b60019150509392505050565b60006012905090565b60001515600560003373ffffffffffffffffffffffffffffffffffffffff1673ffffffffffffffffffffffffffffffffffffffff16815260200190815260200160002060009054906101000a900460ff1615151461039f576040517f08c379a000000000000000000000000000000000000000000000000000000000815260040161039690610f5d565b60405180910390fd5b6103ab3361271061072b565b6001600560003373ffffffffffffffffffffffffffffffffffffffff1673ffffffffffffffffffffffffffffffffffffffff16815260200190815260200160002060006101000a81548160ff021916908315150217905550565b60008060008373ffffffffffffffffffffffffffffffffffffffff1673ffffffffffffffffffffffffffffffffffffffff168152602001908152602001600020549050919050565b60606004805461045c90610eba565b80601f016020809104026020016040519081016040528092919081815260200182805461048890610eba565b80156104d55780601f106104aa576101008083540402835291602001916104d5565b820191906000526020600020905b8154815290600101906020018083116104b857829003601f168201915b5050505050905090565b6000806104ea610589565b90506104f7818585610637565b600191505092915050565b6000600160008473ffffffffffffffffffffffffffffffffffffffff1673ffffffffffffffffffffffffffffffffffffffff16815260200190815260200160002060008373ffffffffffffffffffffffffffffffffffffffff1673ffffffffffffffffffffffffffffffffffffffff16815260200190815260200160002054905092915050565b600033905090565b61059e83838360016107ad565b505050565b60006105af8484610502565b90507fffffffffffffffffffffffffffffffffffffffffffffffffffffffffffffffff81146106315781811015610621578281836040517ffb8f41b200000000000000000000000000000000000000000000000000000000815260040161061893929190610f8c565b60405180910390fd5b610630848484840360006107ad565b5b50505050565b600073ffffffffffffffffffffffffffffffffffffffff168373ffffffffffffffffffffffffffffffffffffffff16036106a95760006040517f96c6fd1e0000000000000000000000000000000000000000000000000000000081526004016106a09190610fc3565b60405180910390fd5b600073ffffffffffffffffffffffffffffffffffffffff168273ffffffffffffffffffffffffffffffffffffffff160361071b5760006040517fec442f050000000000000000000000000000000000000000000000000000000081526004016107129190610fc3565b60405180910390fd5b610726838383610984565b505050565b600073ffffffffffffffffffffffffffffffffffffffff168273ffffffffffffffffffffffffffffffffffffffff160361079d5760006040517fec442f050000000000000000000000000000000000000000000000000000000081526004016107949190610fc3565b60405180910390fd5b6107a960008383610984565b5050565b600073ffffffffffffffffffffffffffffffffffffffff168473ffffffffffffffffffffffffffffffffffffffff160361081f5760006040517fe602df050000000000000000000000000000000000000000000000000000000081526004016108169190610fc3565b60405180910390fd5b600073ffffffffffffffffffffffffffffffffffffffff168373ffffffffffffffffffffffffffffffffffffffff16036108915760006040517f94280d620000000000000000000000000000000000000000000000000000000081526004016108889190610fc3565b60405180910390fd5b81600160008673ffffffffffffffffffffffffffffffffffffffff1673ffffffffffffffffffffffffffffffffffffffff16815260200190815260200160002060008573ffffffffffffffffffffffffffffffffffffffff1673ffffffffffffffffffffffffffffffffffffffff16815260200190815260200160002081905550801561097e578273ffffffffffffffffffffffffffffffffffffffff168473ffffffffffffffffffffffffffffffffffffffff167f8c5be1e5ebec7d5bd14f71427d1e84f3dd0314c0f7b2291e5b200ac8c7c3b925846040516109759190610d79565b60405180910390a35b50505050565b600073ffffffffffffffffffffffffffffffffffffffff168373ffffffffffffffffffffffffffffffffffffffff16036109d65780600260008282546109ca919061100d565b92505081905550610aa9565b60008060008573ffffffffffffffffffffffffffffffffffffffff1673ffffffffffffffffffffffffffffffffffffffff16815260200190815260200160002054905081811015610a62578381836040517fe450d38c000000000000000000000000000000000000000000000000000000008152600401610a5993929190610f8c565b60405180910390fd5b8181036000808673ffffffffffffffffffffffffffffffffffffffff1673ffffffffffffffffffffffffffffffffffffffff16815260200190815260200160002081905550505b600073ffffffffffffffffffffffffffffffffffffffff168273ffffffffffffffffffffffffffffffffffffffff1603610af25780600260008282540392505081905550610b3f565b806000808473ffffffffffffffffffffffffffffffffffffffff1673ffffffffffffffffffffffffffffffffffffffff168152602001908152602001600020600082825401925050819055505b8173ffffffffffffffffffffffffffffffffffffffff168373ffffffffffffffffffffffffffffffffffffffff167fddf252ad1be2c89b69c2b068fc378daa952ba7f163c4a11628f55a4df523b3ef83604051610b9c9190610d79565b60405180910390a3505050565b600081519050919050565b600082825260208201905092915050565b60005b83811015610be3578082015181840152602081019050610bc8565b60008484015250505050565b6000601f19601f8301169050919050565b6000610c0b82610ba9565b610c158185610bb4565b9350610c25818560208601610bc5565b610c2e81610bef565b840191505092915050565b60006020820190508181036000830152610c538184610c00565b905092915050565b600080fd5b600073ffffffffffffffffffffffffffffffffffffffff82169050919050565b6000610c8b82610c60565b9050919050565b610c9b81610c80565b8114610ca657600080fd5b50565b600081359050610cb881610c92565b92915050565b6000819050919050565b610cd181610cbe565b8114610cdc57600080fd5b50565b600081359050610cee81610cc8565b92915050565b60008060408385031215610d0b57610d0a610c5b565b5b6000610d1985828601610ca9565b9250506020610d2a85828601610cdf565b9150509250929050565b60008115159050919050565b610d4981610d34565b82525050565b6000602082019050610d646000830184610d40565b92915050565b610d7381610cbe565b82525050565b6000602082019050610d8e6000830184610d6a565b92915050565b600080600060608486031215610dad57610dac610c5b565b5b6000610dbb86828701610ca9565b9350506020610dcc86828701610ca9565b9250506040610ddd86828701610cdf565b9150509250925092565b600060ff82169050919050565b610dfd81610de7565b82525050565b6000602082019050610e186000830184610df4565b92915050565b600060208284031215610e3457610e33610c5b565b5b6000610e4284828501610ca9565b91505092915050565b60008060408385031215610e6257610e61610c5b565b5b6000610e7085828601610ca9565b9250506020610e8185828601610ca9565b9150509250929050565b7f4e487b7100000000000000000000000000000000000000000000000000000000600052602260045260246000fd5b60006002820490506001821680610ed257607f821691505b602082108103610ee557610ee4610e8b565b5b50919050565b7f5468697320757365722068617320636c61696d65642061697264726f7020616c60008201527f7265616479000000000000000000000000000000000000000000000000000000602082015250565b6000610f47602583610bb4565b9150610f5282610eeb565b604082019050919050565b60006020820190508181036000830152610f7681610f3a565b9050919050565b610f8681610c80565b82525050565b6000606082019050610fa16000830186610f7d565b610fae6020830185610d6a565b610fbb6040830184610d6a565b949350505050565b6000602082019050610fd86000830184610f7d565b92915050565b7f4e487b7100000000000000000000000000000000000000000000000000000000600052601160045260246000fd5b600061101882610cbe565b915061102383610cbe565b925082820190508082111561103b5761103a610fde565b5b9291505056fea2646970667358221220f648425e4e5336fdbcf5c412660e5cfc452f405b64937d7e5d18a7c309e74ce064736f6c63430008140033",
  "linkReferences": {},
  "deployedLinkReferences": {}
}