{
  "_format": "hh-sol-artifact-1",
  "contractName": "BorrowYourCar",
  "sourceName": "contracts/BorrowYourCar.sol",
  "abi": [
    {
      "inputs": [
        {
          "internalType": "string",
          "name": "_name",
          "type": "string"
        },
        {
          "internalType": "string",
          "name": "_symbol",
          "type": "string"
        }
      ],
      "stateMutability": "nonpayable",
      "type": "constructor"
    },
    {
      "inputs": [
        {
          "internalType": "address",
          "name": "sender",
          "type": "address"
        },
        {
          "internalType": "uint256",
          "name": "tokenId",
          "type": "uint256"
        },
        {
          "internalType": "address",
          "name": "owner",
          "type": "address"
        }
      ],
      "name": "ERC721IncorrectOwner",
      "type": "error"
    },
    {
      "inputs": [
        {
          "internalType": "address",
          "name": "operator",
          "type": "address"
        },
        {
          "internalType": "uint256",
          "name": "tokenId",
          "type": "uint256"
        }
      ],
      "name": "ERC721InsufficientApproval",
      "type": "error"
    },
    {
      "inputs": [
        {
          "internalType": "address",
          "name": "approver",
          "type": "address"
        }
      ],
      "name": "ERC721InvalidApprover",
      "type": "error"
    },
    {
      "inputs": [
        {
          "internalType": "address",
          "name": "operator",
          "type": "address"
        }
      ],
      "name": "ERC721InvalidOperator",
      "type": "error"
    },
    {
      "inputs": [
        {
          "internalType": "address",
          "name": "owner",
          "type": "address"
        }
      ],
      "name": "ERC721InvalidOwner",
      "type": "error"
    },
    {
      "inputs": [
        {
          "internalType": "address",
          "name": "receiver",
          "type": "address"
        }
      ],
      "name": "ERC721InvalidReceiver",
      "type": "error"
    },
    {
      "inputs": [
        {
          "internalType": "address",
          "name": "sender",
          "type": "address"
        }
      ],
      "name": "ERC721InvalidSender",
      "type": "error"
    },
    {
      "inputs": [
        {
          "internalType": "uint256",
          "name": "tokenId",
          "type": "uint256"
        }
      ],
      "name": "ERC721NonexistentToken",
      "type": "error"
    },
    {
      "anonymous": false,
      "inputs": [
        {
          "indexed": true,
          "internalType": "address",
          "name": "owner",
          "type": "address"
        },
        {
          "indexed": true,
          "internalType": "address",
          "name": "approved",
          "type": "address"
        },
        {
          "indexed": true,
          "internalType": "uint256",
          "name": "tokenId",
          "type": "uint256"
        }
      ],
      "name": "Approval",
      "type": "event"
    },
    {
      "anonymous": false,
      "inputs": [
        {
          "indexed": true,
          "internalType": "address",
          "name": "owner",
          "type": "address"
        },
        {
          "indexed": true,
          "internalType": "address",
          "name": "operator",
          "type": "address"
        },
        {
          "indexed": false,
          "internalType": "bool",
          "name": "approved",
          "type": "bool"
        }
      ],
      "name": "ApprovalForAll",
      "type": "event"
    },
    {
      "anonymous": false,
      "inputs": [
        {
          "indexed": false,
          "internalType": "uint32",
          "name": "carTokenId",
          "type": "uint32"
        },
        {
          "indexed": false,
          "internalType": "address",
          "name": "borrower",
          "type": "address"
        },
        {
          "indexed": false,
          "internalType": "uint256",
          "name": "startTime",
          "type": "uint256"
        },
        {
          "indexed": false,
          "internalType": "uint256",
          "name": "duration",
          "type": "uint256"
        }
      ],
      "name": "CarBorrowed",
      "type": "event"
    },
    {
      "anonymous": false,
      "inputs": [
        {
          "indexed": true,
          "internalType": "address",
          "name": "from",
          "type": "address"
        },
        {
          "indexed": true,
          "internalType": "address",
          "name": "to",
          "type": "address"
        },
        {
          "indexed": true,
          "internalType": "uint256",
          "name": "tokenId",
          "type": "uint256"
        }
      ],
      "name": "Transfer",
      "type": "event"
    },
    {
      "inputs": [
        {
          "internalType": "address",
          "name": "to",
          "type": "address"
        },
        {
          "internalType": "uint256",
          "name": "tokenId",
          "type": "uint256"
        }
      ],
      "name": "approve",
      "outputs": [],
      "stateMutability": "nonpayable",
      "type": "function"
    },
    {
      "inputs": [
        {
          "internalType": "address",
          "name": "owner",
          "type": "address"
        }
      ],
      "name": "balanceOf",
      "outputs": [
        {
          "internalType": "uint256",
          "name": "",
          "type": "uint256"
        }
      ],
      "stateMutability": "view",
      "type": "function"
    },
    {
      "inputs": [
        {
          "internalType": "uint256",
          "name": "_tokenId",
          "type": "uint256"
        },
        {
          "internalType": "uint256",
          "name": "borrowDuration",
          "type": "uint256"
        }
      ],
      "name": "borrowCar",
      "outputs": [],
      "stateMutability": "nonpayable",
      "type": "function"
    },
    {
      "inputs": [
        {
          "internalType": "uint256",
          "name": "_tokenId",
          "type": "uint256"
        }
      ],
      "name": "canBorrow",
      "outputs": [
        {
          "internalType": "bool",
          "name": "",
          "type": "bool"
        }
      ],
      "stateMutability": "view",
      "type": "function"
    },
    {
      "inputs": [
        {
          "internalType": "uint256",
          "name": "",
          "type": "uint256"
        }
      ],
      "name": "cars",
      "outputs": [
        {
          "internalType": "address",
          "name": "owner",
          "type": "address"
        },
        {
          "internalType": "address",
          "name": "borrower",
          "type": "address"
        },
        {
          "internalType": "uint256",
          "name": "borrowUntil",
          "type": "uint256"
        }
      ],
      "stateMutability": "view",
      "type": "function"
    },
    {
      "inputs": [
        {
          "internalType": "uint256",
          "name": "tokenId",
          "type": "uint256"
        }
      ],
      "name": "getApproved",
      "outputs": [
        {
          "internalType": "address",
          "name": "",
          "type": "address"
        }
      ],
      "stateMutability": "view",
      "type": "function"
    },
    {
      "inputs": [],
      "name": "getAvailableCars",
      "outputs": [
        {
          "internalType": "uint256[]",
          "name": "",
          "type": "uint256[]"
        }
      ],
      "stateMutability": "view",
      "type": "function"
    },
    {
      "inputs": [
        {
          "internalType": "uint256",
          "name": "carId",
          "type": "uint256"
        }
      ],
      "name": "getBorrower",
      "outputs": [
        {
          "internalType": "address",
          "name": "",
          "type": "address"
        }
      ],
      "stateMutability": "view",
      "type": "function"
    },
    {
      "inputs": [],
      "name": "getOwnedCars",
      "outputs": [
        {
          "internalType": "uint256[]",
          "name": "",
          "type": "uint256[]"
        }
      ],
      "stateMutability": "view",
      "type": "function"
    },
    {
      "inputs": [
        {
          "internalType": "uint256",
          "name": "carId",
          "type": "uint256"
        }
      ],
      "name": "getOwner",
      "outputs": [
        {
          "internalType": "address",
          "name": "",
          "type": "address"
        }
      ],
      "stateMutability": "view",
      "type": "function"
    },
    {
      "inputs": [
        {
          "internalType": "address",
          "name": "owner",
          "type": "address"
        },
        {
          "internalType": "address",
          "name": "operator",
          "type": "address"
        }
      ],
      "name": "isApprovedForAll",
      "outputs": [
        {
          "internalType": "bool",
          "name": "",
          "type": "bool"
        }
      ],
      "stateMutability": "view",
      "type": "function"
    },
    {
      "inputs": [],
      "name": "issueCar",
      "outputs": [],
      "stateMutability": "nonpayable",
      "type": "function"
    },
    {
      "inputs": [],
      "name": "manager",
      "outputs": [
        {
          "internalType": "address",
          "name": "",
          "type": "address"
        }
      ],
      "stateMutability": "view",
      "type": "function"
    },
    {
      "inputs": [],
      "name": "name",
      "outputs": [
        {
          "internalType": "string",
          "name": "",
          "type": "string"
        }
      ],
      "stateMutability": "view",
      "type": "function"
    },
    {
      "inputs": [
        {
          "internalType": "address",
          "name": "",
          "type": "address"
        },
        {
          "internalType": "uint256",
          "name": "",
          "type": "uint256"
        }
      ],
      "name": "ownedCars",
      "outputs": [
        {
          "internalType": "uint256",
          "name": "",
          "type": "uint256"
        }
      ],
      "stateMutability": "view",
      "type": "function"
    },
    {
      "inputs": [
        {
          "internalType": "uint256",
          "name": "tokenId",
          "type": "uint256"
        }
      ],
      "name": "ownerOf",
      "outputs": [
        {
          "internalType": "address",
          "name": "",
          "type": "address"
        }
      ],
      "stateMutability": "view",
      "type": "function"
    },
    {
      "inputs": [
        {
          "internalType": "uint256",
          "name": "_tokenId",
          "type": "uint256"
        }
      ],
      "name": "returnCar",
      "outputs": [],
      "stateMutability": "nonpayable",
      "type": "function"
    },
    {
      "inputs": [
        {
          "internalType": "address",
          "name": "from",
          "type": "address"
        },
        {
          "internalType": "address",
          "name": "to",
          "type": "address"
        },
        {
          "internalType": "uint256",
          "name": "tokenId",
          "type": "uint256"
        }
      ],
      "name": "safeTransferFrom",
      "outputs": [],
      "stateMutability": "nonpayable",
      "type": "function"
    },
    {
      "inputs": [
        {
          "internalType": "address",
          "name": "from",
          "type": "address"
        },
        {
          "internalType": "address",
          "name": "to",
          "type": "address"
        },
        {
          "internalType": "uint256",
          "name": "tokenId",
          "type": "uint256"
        },
        {
          "internalType": "bytes",
          "name": "data",
          "type": "bytes"
        }
      ],
      "name": "safeTransferFrom",
      "outputs": [],
      "stateMutability": "nonpayable",
      "type": "function"
    },
    {
      "inputs": [
        {
          "internalType": "address",
          "name": "operator",
          "type": "address"
        },
        {
          "internalType": "bool",
          "name": "approved",
          "type": "bool"
        }
      ],
      "name": "setApprovalForAll",
      "outputs": [],
      "stateMutability": "nonpayable",
      "type": "function"
    },
    {
      "inputs": [
        {
          "internalType": "bytes4",
          "name": "interfaceId",
          "type": "bytes4"
        }
      ],
      "name": "supportsInterface",
      "outputs": [
        {
          "internalType": "bool",
          "name": "",
          "type": "bool"
        }
      ],
      "stateMutability": "view",
      "type": "function"
    },
    {
      "inputs": [],
      "name": "symbol",
      "outputs": [
        {
          "internalType": "string",
          "name": "",
          "type": "string"
        }
      ],
      "stateMutability": "view",
      "type": "function"
    },
    {
      "inputs": [
        {
          "internalType": "uint256",
          "name": "tokenId",
          "type": "uint256"
        }
      ],
      "name": "tokenURI",
      "outputs": [
        {
          "internalType": "string",
          "name": "",
          "type": "string"
        }
      ],
      "stateMutability": "view",
      "type": "function"
    },
    {
      "inputs": [
        {
          "internalType": "address",
          "name": "from",
          "type": "address"
        },
        {
          "internalType": "address",
          "name": "to",
          "type": "address"
        },
        {
          "internalType": "uint256",
          "name": "tokenId",
          "type": "uint256"
        }
      ],
      "name": "transferFrom",
      "outputs": [],
      "stateMutability": "nonpayable",
      "type": "function"
    }
  ],
  "bytecode": "0x6080604052600060075560016008553480156200001b57600080fd5b506040516200304738038062003047833981810160405281019062000041919062000245565b8181816000908162000054919062000515565b50806001908162000066919062000515565b50505033600660006101000a81548173ffffffffffffffffffffffffffffffffffffffff021916908373ffffffffffffffffffffffffffffffffffffffff1602179055505050620005fc565b6000604051905090565b600080fd5b600080fd5b600080fd5b600080fd5b6000601f19601f8301169050919050565b7f4e487b7100000000000000000000000000000000000000000000000000000000600052604160045260246000fd5b6200011b82620000d0565b810181811067ffffffffffffffff821117156200013d576200013c620000e1565b5b80604052505050565b600062000152620000b2565b905062000160828262000110565b919050565b600067ffffffffffffffff821115620001835762000182620000e1565b5b6200018e82620000d0565b9050602081019050919050565b60005b83811015620001bb5780820151818401526020810190506200019e565b60008484015250505050565b6000620001de620001d88462000165565b62000146565b905082815260208101848484011115620001fd57620001fc620000cb565b5b6200020a8482856200019b565b509392505050565b600082601f8301126200022a5762000229620000c6565b5b81516200023c848260208601620001c7565b91505092915050565b600080604083850312156200025f576200025e620000bc565b5b600083015167ffffffffffffffff81111562000280576200027f620000c1565b5b6200028e8582860162000212565b925050602083015167ffffffffffffffff811115620002b257620002b1620000c1565b5b620002c08582860162000212565b9150509250929050565b600081519050919050565b7f4e487b7100000000000000000000000000000000000000000000000000000000600052602260045260246000fd5b600060028204905060018216806200031d57607f821691505b602082108103620003335762000332620002d5565b5b50919050565b60008190508160005260206000209050919050565b60006020601f8301049050919050565b600082821b905092915050565b6000600883026200039d7fffffffffffffffffffffffffffffffffffffffffffffffffffffffffffffffff826200035e565b620003a986836200035e565b95508019841693508086168417925050509392505050565b6000819050919050565b6000819050919050565b6000620003f6620003f0620003ea84620003c1565b620003cb565b620003c1565b9050919050565b6000819050919050565b6200041283620003d5565b6200042a6200042182620003fd565b8484546200036b565b825550505050565b600090565b6200044162000432565b6200044e81848462000407565b505050565b5b8181101562000476576200046a60008262000437565b60018101905062000454565b5050565b601f821115620004c5576200048f8162000339565b6200049a846200034e565b81016020851015620004aa578190505b620004c2620004b9856200034e565b83018262000453565b50505b505050565b600082821c905092915050565b6000620004ea60001984600802620004ca565b1980831691505092915050565b6000620005058383620004d7565b9150826002028217905092915050565b6200052082620002ca565b67ffffffffffffffff8111156200053c576200053b620000e1565b5b62000548825462000304565b620005558282856200047a565b600060209050601f8311600181146200058d576000841562000578578287015190505b620005848582620004f7565b865550620005f4565b601f1984166200059d8662000339565b60005b82811015620005c757848901518255600182019150602085019450602081019050620005a0565b86831015620005e75784890151620005e3601f891682620004d7565b8355505b6001600288020188555050505b505050505050565b612a3b806200060c6000396000f3fe608060405234801561001057600080fd5b50600436106101585760003560e01c80638500d919116100c3578063b88d4fde1161007c578063b88d4fde146103d9578063c41a360a146103f5578063c87b56dd14610425578063e865af0414610455578063e985e9c514610471578063f7746e36146104a157610158565b80638500d9191461031757806395d89b4114610347578063a22cb46514610365578063a2753b3114610381578063a5adf8ea1461038b578063b66935ed146103a957610158565b806323b872dd1161011557806323b872dd1461024357806342842e0e1461025f578063433b80461461027b578063481c6a75146102995780636352211e146102b757806370a08231146102e757610158565b806301ffc9a71461015d57806306fdde031461018d578063081812fc146101ab5780630911f04a146101db578063095ea7b31461020b57806317f956e014610227575b600080fd5b61017760048036038101906101729190611f30565b6104d3565b6040516101849190611f78565b60405180910390f35b6101956105b5565b6040516101a29190612023565b60405180910390f35b6101c560048036038101906101c0919061207b565b610647565b6040516101d291906120e9565b60405180910390f35b6101f560048036038101906101f0919061207b565b610663565b6040516102029190611f78565b60405180910390f35b61022560048036038101906102209190612130565b6106f3565b005b610241600480360381019061023c919061207b565b610709565b005b61025d60048036038101906102589190612170565b610822565b005b61027960048036038101906102749190612170565b610924565b005b610283610944565b6040516102909190612281565b60405180910390f35b6102a1610aa3565b6040516102ae91906120e9565b60405180910390f35b6102d160048036038101906102cc919061207b565b610ac9565b6040516102de91906120e9565b60405180910390f35b61030160048036038101906102fc91906122a3565b610adb565b60405161030e91906122df565b60405180910390f35b610331600480360381019061032c919061207b565b610b95565b60405161033e91906120e9565b60405180910390f35b61034f610bfc565b60405161035c9190612023565b60405180910390f35b61037f600480360381019061037a9190612326565b610c8e565b005b610389610ca4565b005b610393610e2d565b6040516103a09190612281565b60405180910390f35b6103c360048036038101906103be9190612130565b610ec2565b6040516103d091906122df565b60405180910390f35b6103f360048036038101906103ee919061249b565b610ef3565b005b61040f600480360381019061040a919061207b565b610f10565b60405161041c91906120e9565b60405180910390f35b61043f600480360381019061043a919061207b565b610f55565b60405161044c9190612023565b60405180910390f35b61046f600480360381019061046a919061251e565b610fbe565b005b61048b6004803603810190610486919061255e565b611085565b6040516104989190611f78565b60405180910390f35b6104bb60048036038101906104b6919061207b565b611119565b6040516104ca9392919061259e565b60405180910390f35b60007f80ac58cd000000000000000000000000000000000000000000000000000000007bffffffffffffffffffffffffffffffffffffffffffffffffffffffff1916827bffffffffffffffffffffffffffffffffffffffffffffffffffffffff1916148061059e57507f5b5e139f000000000000000000000000000000000000000000000000000000007bffffffffffffffffffffffffffffffffffffffffffffffffffffffff1916827bffffffffffffffffffffffffffffffffffffffffffffffffffffffff1916145b806105ae57506105ad82611183565b5b9050919050565b6060600080546105c490612604565b80601f01602080910402602001604051908101604052809291908181526020018280546105f090612604565b801561063d5780601f106106125761010080835404028352916020019161063d565b820191906000526020600020905b81548152906001019060200180831161062057829003601f168201915b5050505050905090565b6000610652826111ed565b5061065c82611275565b9050919050565b60004260096000848152602001908152602001600020600201541080156106ec5750600073ffffffffffffffffffffffffffffffffffffffff166009600084815260200190815260200160002060010160009054906101000a900473ffffffffffffffffffffffffffffffffffffffff1673ffffffffffffffffffffffffffffffffffffffff16145b9050919050565b61070582826107006112b2565b6112ba565b5050565b3373ffffffffffffffffffffffffffffffffffffffff166009600083815260200190815260200160002060010160009054906101000a900473ffffffffffffffffffffffffffffffffffffffff1673ffffffffffffffffffffffffffffffffffffffff16146107ad576040517f08c379a00000000000000000000000000000000000000000000000000000000081526004016107a4906126a7565b60405180910390fd5b60006009600083815260200190815260200160002060010160006101000a81548173ffffffffffffffffffffffffffffffffffffffff021916908373ffffffffffffffffffffffffffffffffffffffff1602179055506000600960008381526020019081526020016000206002018190555050565b600073ffffffffffffffffffffffffffffffffffffffff168273ffffffffffffffffffffffffffffffffffffffff16036108945760006040517f64a0ae9200000000000000000000000000000000000000000000000000000000815260040161088b91906120e9565b60405180910390fd5b60006108a883836108a36112b2565b6112cc565b90508373ffffffffffffffffffffffffffffffffffffffff168173ffffffffffffffffffffffffffffffffffffffff161461091e578382826040517f64283d7b000000000000000000000000000000000000000000000000000000008152600401610915939291906126c7565b60405180910390fd5b50505050565b61093f83838360405180602001604052806000815250610ef3565b505050565b6060600060075467ffffffffffffffff81111561096457610963612370565b5b6040519080825280602002602001820160405280156109925781602001602082028036833780820191505090505b5090506000805b6007548110156109f3576109ac81610663565b156109e057808383815181106109c5576109c46126fe565b5b60200260200101818152505081806109dc9061275c565b9250505b80806109eb9061275c565b915050610999565b5060008167ffffffffffffffff811115610a1057610a0f612370565b5b604051908082528060200260200182016040528015610a3e5781602001602082028036833780820191505090505b50905060005b82811015610a9957838181518110610a5f57610a5e6126fe565b5b6020026020010151828281518110610a7a57610a796126fe565b5b6020026020010181815250508080610a919061275c565b915050610a44565b5080935050505090565b600660009054906101000a900473ffffffffffffffffffffffffffffffffffffffff1681565b6000610ad4826111ed565b9050919050565b60008073ffffffffffffffffffffffffffffffffffffffff168273ffffffffffffffffffffffffffffffffffffffff1603610b4e5760006040517f89c62b64000000000000000000000000000000000000000000000000000000008152600401610b4591906120e9565b60405180910390fd5b600360008373ffffffffffffffffffffffffffffffffffffffff1673ffffffffffffffffffffffffffffffffffffffff168152602001908152602001600020549050919050565b600042600960008481526020019081526020016000206002015410610bf2576009600083815260200190815260200160002060010160009054906101000a900473ffffffffffffffffffffffffffffffffffffffff169050610bf7565b600090505b919050565b606060018054610c0b90612604565b80601f0160208091040260200160405190810160405280929190818152602001828054610c3790612604565b8015610c845780601f10610c5957610100808354040283529160200191610c84565b820191906000526020600020905b815481529060010190602001808311610c6757829003601f168201915b5050505050905090565b610ca0610c996112b2565b83836114e6565b5050565b60006007549050610cb53382611655565b60405180606001604052803373ffffffffffffffffffffffffffffffffffffffff168152602001600073ffffffffffffffffffffffffffffffffffffffff16815260200160008152506009600083815260200190815260200160002060008201518160000160006101000a81548173ffffffffffffffffffffffffffffffffffffffff021916908373ffffffffffffffffffffffffffffffffffffffff16021790555060208201518160010160006101000a81548173ffffffffffffffffffffffffffffffffffffffff021916908373ffffffffffffffffffffffffffffffffffffffff1602179055506040820151816002015590505060076000815480929190610dbf9061275c565b9190505550600a60003373ffffffffffffffffffffffffffffffffffffffff1673ffffffffffffffffffffffffffffffffffffffff16815260200190815260200160002081908060018154018082558091505060019003906000526020600020016000909190919091505550565b6060600a60003373ffffffffffffffffffffffffffffffffffffffff1673ffffffffffffffffffffffffffffffffffffffff168152602001908152602001600020805480602002602001604051908101604052809291908181526020018280548015610eb857602002820191906000526020600020905b815481526020019060010190808311610ea4575b5050505050905090565b600a6020528160005260406000208181548110610ede57600080fd5b90600052602060002001600091509150505481565b610efe848484610822565b610f0a8484848461174e565b50505050565b6000806009600084815260200190815260200160002090508060000160009054906101000a900473ffffffffffffffffffffffffffffffffffffffff16915050919050565b6060610f60826111ed565b506000610f6b611905565b90506000815111610f8b5760405180602001604052806000815250610fb6565b80610f958461191c565b604051602001610fa69291906127e0565b6040516020818303038152906040525b915050919050565b610fc782610663565b611006576040517f08c379a0000000000000000000000000000000000000000000000000000000008152600401610ffd90612876565b60405180910390fd5b336009600084815260200190815260200160002060010160006101000a81548173ffffffffffffffffffffffffffffffffffffffff021916908373ffffffffffffffffffffffffffffffffffffffff16021790555080426110679190612896565b60096000848152602001908152602001600020600201819055505050565b6000600560008473ffffffffffffffffffffffffffffffffffffffff1673ffffffffffffffffffffffffffffffffffffffff16815260200190815260200160002060008373ffffffffffffffffffffffffffffffffffffffff1673ffffffffffffffffffffffffffffffffffffffff16815260200190815260200160002060009054906101000a900460ff16905092915050565b60096020528060005260406000206000915090508060000160009054906101000a900473ffffffffffffffffffffffffffffffffffffffff16908060010160009054906101000a900473ffffffffffffffffffffffffffffffffffffffff16908060020154905083565b60007f01ffc9a7000000000000000000000000000000000000000000000000000000007bffffffffffffffffffffffffffffffffffffffffffffffffffffffff1916827bffffffffffffffffffffffffffffffffffffffffffffffffffffffff1916149050919050565b6000806111f9836119ea565b9050600073ffffffffffffffffffffffffffffffffffffffff168173ffffffffffffffffffffffffffffffffffffffff160361126c57826040517f7e27328900000000000000000000000000000000000000000000000000000000815260040161126391906122df565b60405180910390fd5b80915050919050565b60006004600083815260200190815260200160002060009054906101000a900473ffffffffffffffffffffffffffffffffffffffff169050919050565b600033905090565b6112c78383836001611a27565b505050565b6000806112d8846119ea565b9050600073ffffffffffffffffffffffffffffffffffffffff168373ffffffffffffffffffffffffffffffffffffffff161461131a57611319818486611bec565b5b600073ffffffffffffffffffffffffffffffffffffffff168173ffffffffffffffffffffffffffffffffffffffff16146113ab5761135c600085600080611a27565b6001600360008373ffffffffffffffffffffffffffffffffffffffff1673ffffffffffffffffffffffffffffffffffffffff168152602001908152602001600020600082825403925050819055505b600073ffffffffffffffffffffffffffffffffffffffff168573ffffffffffffffffffffffffffffffffffffffff161461142e576001600360008773ffffffffffffffffffffffffffffffffffffffff1673ffffffffffffffffffffffffffffffffffffffff168152602001908152602001600020600082825401925050819055505b846002600086815260200190815260200160002060006101000a81548173ffffffffffffffffffffffffffffffffffffffff021916908373ffffffffffffffffffffffffffffffffffffffff160217905550838573ffffffffffffffffffffffffffffffffffffffff168273ffffffffffffffffffffffffffffffffffffffff167fddf252ad1be2c89b69c2b068fc378daa952ba7f163c4a11628f55a4df523b3ef60405160405180910390a4809150509392505050565b600073ffffffffffffffffffffffffffffffffffffffff168273ffffffffffffffffffffffffffffffffffffffff160361155757816040517f5b08ba1800000000000000000000000000000000000000000000000000000000815260040161154e91906120e9565b60405180910390fd5b80600560008573ffffffffffffffffffffffffffffffffffffffff1673ffffffffffffffffffffffffffffffffffffffff16815260200190815260200160002060008473ffffffffffffffffffffffffffffffffffffffff1673ffffffffffffffffffffffffffffffffffffffff16815260200190815260200160002060006101000a81548160ff0219169083151502179055508173ffffffffffffffffffffffffffffffffffffffff168373ffffffffffffffffffffffffffffffffffffffff167f17307eab39ab6107e8899845ad3d59bd9653f200f220920489ca2b5937696c31836040516116489190611f78565b60405180910390a3505050565b600073ffffffffffffffffffffffffffffffffffffffff168273ffffffffffffffffffffffffffffffffffffffff16036116c75760006040517f64a0ae920000000000000000000000000000000000000000000000000000000081526004016116be91906120e9565b60405180910390fd5b60006116d5838360006112cc565b9050600073ffffffffffffffffffffffffffffffffffffffff168173ffffffffffffffffffffffffffffffffffffffff16146117495760006040517f73c6ac6e00000000000000000000000000000000000000000000000000000000815260040161174091906120e9565b60405180910390fd5b505050565b60008373ffffffffffffffffffffffffffffffffffffffff163b11156118ff578273ffffffffffffffffffffffffffffffffffffffff1663150b7a026117926112b2565b8685856040518563ffffffff1660e01b81526004016117b4949392919061291f565b6020604051808303816000875af19250505080156117f057506040513d601f19601f820116820180604052508101906117ed9190612980565b60015b611874573d8060008114611820576040519150601f19603f3d011682016040523d82523d6000602084013e611825565b606091505b50600081510361186c57836040517f64a0ae9200000000000000000000000000000000000000000000000000000000815260040161186391906120e9565b60405180910390fd5b805181602001fd5b63150b7a0260e01b7bffffffffffffffffffffffffffffffffffffffffffffffffffffffff1916817bffffffffffffffffffffffffffffffffffffffffffffffffffffffff1916146118fd57836040517f64a0ae920000000000000000000000000000000000000000000000000000000081526004016118f491906120e9565b60405180910390fd5b505b50505050565b606060405180602001604052806000815250905090565b60606000600161192b84611cb0565b01905060008167ffffffffffffffff81111561194a57611949612370565b5b6040519080825280601f01601f19166020018201604052801561197c5781602001600182028036833780820191505090505b509050600082602001820190505b6001156119df578080600190039150507f3031323334353637383961626364656600000000000000000000000000000000600a86061a8153600a85816119d3576119d26129ad565b5b0494506000850361198a575b819350505050919050565b60006002600083815260200190815260200160002060009054906101000a900473ffffffffffffffffffffffffffffffffffffffff169050919050565b8080611a605750600073ffffffffffffffffffffffffffffffffffffffff168273ffffffffffffffffffffffffffffffffffffffff1614155b15611b94576000611a70846111ed565b9050600073ffffffffffffffffffffffffffffffffffffffff168373ffffffffffffffffffffffffffffffffffffffff1614158015611adb57508273ffffffffffffffffffffffffffffffffffffffff168173ffffffffffffffffffffffffffffffffffffffff1614155b8015611aee5750611aec8184611085565b155b15611b3057826040517fa9fbf51f000000000000000000000000000000000000000000000000000000008152600401611b2791906120e9565b60405180910390fd5b8115611b9257838573ffffffffffffffffffffffffffffffffffffffff168273ffffffffffffffffffffffffffffffffffffffff167f8c5be1e5ebec7d5bd14f71427d1e84f3dd0314c0f7b2291e5b200ac8c7c3b92560405160405180910390a45b505b836004600085815260200190815260200160002060006101000a81548173ffffffffffffffffffffffffffffffffffffffff021916908373ffffffffffffffffffffffffffffffffffffffff16021790555050505050565b611bf7838383611e03565b611cab57600073ffffffffffffffffffffffffffffffffffffffff168373ffffffffffffffffffffffffffffffffffffffff1603611c6c57806040517f7e273289000000000000000000000000000000000000000000000000000000008152600401611c6391906122df565b60405180910390fd5b81816040517f177e802f000000000000000000000000000000000000000000000000000000008152600401611ca29291906129dc565b60405180910390fd5b505050565b600080600090507a184f03e93ff9f4daa797ed6e38ed64bf6a1f0100000000000000008310611d0e577a184f03e93ff9f4daa797ed6e38ed64bf6a1f0100000000000000008381611d0457611d036129ad565b5b0492506040810190505b6d04ee2d6d415b85acef81000000008310611d4b576d04ee2d6d415b85acef81000000008381611d4157611d406129ad565b5b0492506020810190505b662386f26fc100008310611d7a57662386f26fc100008381611d7057611d6f6129ad565b5b0492506010810190505b6305f5e1008310611da3576305f5e1008381611d9957611d986129ad565b5b0492506008810190505b6127108310611dc8576127108381611dbe57611dbd6129ad565b5b0492506004810190505b60648310611deb5760648381611de157611de06129ad565b5b0492506002810190505b600a8310611dfa576001810190505b80915050919050565b60008073ffffffffffffffffffffffffffffffffffffffff168373ffffffffffffffffffffffffffffffffffffffff1614158015611ebb57508273ffffffffffffffffffffffffffffffffffffffff168473ffffffffffffffffffffffffffffffffffffffff161480611e7c5750611e7b8484611085565b5b80611eba57508273ffffffffffffffffffffffffffffffffffffffff16611ea283611275565b73ffffffffffffffffffffffffffffffffffffffff16145b5b90509392505050565b6000604051905090565b600080fd5b600080fd5b60007fffffffff0000000000000000000000000000000000000000000000000000000082169050919050565b611f0d81611ed8565b8114611f1857600080fd5b50565b600081359050611f2a81611f04565b92915050565b600060208284031215611f4657611f45611ece565b5b6000611f5484828501611f1b565b91505092915050565b60008115159050919050565b611f7281611f5d565b82525050565b6000602082019050611f8d6000830184611f69565b92915050565b600081519050919050565b600082825260208201905092915050565b60005b83811015611fcd578082015181840152602081019050611fb2565b60008484015250505050565b6000601f19601f8301169050919050565b6000611ff582611f93565b611fff8185611f9e565b935061200f818560208601611faf565b61201881611fd9565b840191505092915050565b6000602082019050818103600083015261203d8184611fea565b905092915050565b6000819050919050565b61205881612045565b811461206357600080fd5b50565b6000813590506120758161204f565b92915050565b60006020828403121561209157612090611ece565b5b600061209f84828501612066565b91505092915050565b600073ffffffffffffffffffffffffffffffffffffffff82169050919050565b60006120d3826120a8565b9050919050565b6120e3816120c8565b82525050565b60006020820190506120fe60008301846120da565b92915050565b61210d816120c8565b811461211857600080fd5b50565b60008135905061212a81612104565b92915050565b6000806040838503121561214757612146611ece565b5b60006121558582860161211b565b925050602061216685828601612066565b9150509250929050565b60008060006060848603121561218957612188611ece565b5b60006121978682870161211b565b93505060206121a88682870161211b565b92505060406121b986828701612066565b9150509250925092565b600081519050919050565b600082825260208201905092915050565b6000819050602082019050919050565b6121f881612045565b82525050565b600061220a83836121ef565b60208301905092915050565b6000602082019050919050565b600061222e826121c3565b61223881856121ce565b9350612243836121df565b8060005b8381101561227457815161225b88826121fe565b975061226683612216565b925050600181019050612247565b5085935050505092915050565b6000602082019050818103600083015261229b8184612223565b905092915050565b6000602082840312156122b9576122b8611ece565b5b60006122c78482850161211b565b91505092915050565b6122d981612045565b82525050565b60006020820190506122f460008301846122d0565b92915050565b61230381611f5d565b811461230e57600080fd5b50565b600081359050612320816122fa565b92915050565b6000806040838503121561233d5761233c611ece565b5b600061234b8582860161211b565b925050602061235c85828601612311565b9150509250929050565b600080fd5b600080fd5b7f4e487b7100000000000000000000000000000000000000000000000000000000600052604160045260246000fd5b6123a882611fd9565b810181811067ffffffffffffffff821117156123c7576123c6612370565b5b80604052505050565b60006123da611ec4565b90506123e6828261239f565b919050565b600067ffffffffffffffff82111561240657612405612370565b5b61240f82611fd9565b9050602081019050919050565b82818337600083830152505050565b600061243e612439846123eb565b6123d0565b90508281526020810184848401111561245a5761245961236b565b5b61246584828561241c565b509392505050565b600082601f83011261248257612481612366565b5b813561249284826020860161242b565b91505092915050565b600080600080608085870312156124b5576124b4611ece565b5b60006124c38782880161211b565b94505060206124d48782880161211b565b93505060406124e587828801612066565b925050606085013567ffffffffffffffff81111561250657612505611ed3565b5b6125128782880161246d565b91505092959194509250565b6000806040838503121561253557612534611ece565b5b600061254385828601612066565b925050602061255485828601612066565b9150509250929050565b6000806040838503121561257557612574611ece565b5b60006125838582860161211b565b92505060206125948582860161211b565b9150509250929050565b60006060820190506125b360008301866120da565b6125c060208301856120da565b6125cd60408301846122d0565b949350505050565b7f4e487b7100000000000000000000000000000000000000000000000000000000600052602260045260246000fd5b6000600282049050600182168061261c57607f821691505b60208210810361262f5761262e6125d5565b5b50919050565b7f4f6e6c792074686520626f72726f7765722063616e2072657475726e2074686560008201527f2063617200000000000000000000000000000000000000000000000000000000602082015250565b6000612691602483611f9e565b915061269c82612635565b604082019050919050565b600060208201905081810360008301526126c081612684565b9050919050565b60006060820190506126dc60008301866120da565b6126e960208301856122d0565b6126f660408301846120da565b949350505050565b7f4e487b7100000000000000000000000000000000000000000000000000000000600052603260045260246000fd5b7f4e487b7100000000000000000000000000000000000000000000000000000000600052601160045260246000fd5b600061276782612045565b91507fffffffffffffffffffffffffffffffffffffffffffffffffffffffffffffffff82036127995761279861272d565b5b600182019050919050565b600081905092915050565b60006127ba82611f93565b6127c481856127a4565b93506127d4818560208601611faf565b80840191505092915050565b60006127ec82856127af565b91506127f882846127af565b91508190509392505050565b7f4361722063616e6e6f7420626520626f72726f7765642061742074686973207460008201527f696d650000000000000000000000000000000000000000000000000000000000602082015250565b6000612860602383611f9e565b915061286b82612804565b604082019050919050565b6000602082019050818103600083015261288f81612853565b9050919050565b60006128a182612045565b91506128ac83612045565b92508282019050808211156128c4576128c361272d565b5b92915050565b600081519050919050565b600082825260208201905092915050565b60006128f1826128ca565b6128fb81856128d5565b935061290b818560208601611faf565b61291481611fd9565b840191505092915050565b600060808201905061293460008301876120da565b61294160208301866120da565b61294e60408301856122d0565b818103606083015261296081846128e6565b905095945050505050565b60008151905061297a81611f04565b92915050565b60006020828403121561299657612995611ece565b5b60006129a48482850161296b565b91505092915050565b7f4e487b7100000000000000000000000000000000000000000000000000000000600052601260045260246000fd5b60006040820190506129f160008301856120da565b6129fe60208301846122d0565b939250505056fea2646970667358221220249eee0b437c7bfefd04b319cb897bdedc60440a0d740b3f501f90fa4c68976664736f6c63430008140033",
  "linkReferences": {},
  "deployedLinkReferences": {}
}